:020000041000EA
:1000000000B5324B212058609868022188439860DF
:10001000D860186158612E4B002199600221596106
:100020000121F02299502B49196001219960352056
:1000300000F044F80222904214D00621196600F024
:1000400034F8196E01211966002018661A6600F04E
:100050002CF8196E196E196E052000F02FF8012189
:100060000842F9D1002199601B49196000215960AB
:100070001A491B48016001219960EB211966A021F2
:10008000196600F012F800219960164914480160C1
:100090000121996001BC002800D000471248134993
:1000A000086003C880F30888084703B5996A0420EC
:1000B0000142FBD001200142F8D103BD02B5186610
:1000C0001866FFF7F2FF186E186E02BD00000240BE
:1000D000000000180000070000035F00212200005C
:1000E000F4000018222000A00001001008ED00E03C
:1000F00000000000000000000000000074B24E7A12
:1001000000200420F7010010C3010010C5010010F9
:10011000C1010010C1010010C1010010C101001097
:10012000C1010010C1010010C1010010C701001081
:10013000C1010010C1010010C9010010CB01001065
:10014000CD010010CD010010CD010010CD01001037
:10015000CD010010CD010010CD010010CD01001027
:10016000CD010010CD010010CD010010CD01001017
:10017000CD010010CD010010CD010010CD01001007
:10018000CD010010CD010010CD010010CD010010F7
:10019000CD010010CD010010CD010010CD010010E7
:1001A000CD010010CD010010CD010010CD010010D7
:1001B000CD010010CD010010CD010010CD010010C7
:1001C00000BE00BE00BE00BE00BE00BEEFF3058054
:1001D000103800BEF2EB8871B4550010DC550010E9
:1001E0003402001090A31AE700201F49086006C8D7
:1001F00081F3088810471D48006800282FD10DA4FE
:100200000ECC002902D000F012F8F9E71849194A7B
:10021000002000E001C19142FCD1174988471749ED
:1002200088471749884700BEFDE701C901C29A42C5
:10023000FBD37047DC550010C0000020E404002010
:10024000005A00100000042000000420005A001092
:10025000001004200010042000000000704709482E
:1002600001F042FE0047000008ED00E0000000D071
:10027000E80400208C120020611D001061030010B2
:10028000551E00105756000006005250ABB3605385
:100290003C53001006005250861C03024C530010C1
:1002A000060052505422A29D58530010050052508F
:1002B000DE65F468005A0010F8B5C0460448054BE6
:1002C00010B5834203D0044B002B00D0984710BDDB
:1002D000E4040020E4040020000000000648074970
:1002E000091A8B10C90FC91810B5491003D0044B57
:1002F000002B00D0984710BDE4040020E404002047
:100300000000000010B5074C2378002B09D1FFF73F
:10031000D5FF054B002B02D0044800E000BF0123AD
:10032000237010BDF007002000000000A85200104C
:10033000054B10B5002B03D00449054800E000BF71
:10034000FFF7CCFF10BDC04600000000F4070020FE
:10035000A852001010B5642000F0E6FEFBE7C0468E
:1003600010B502F051F8044804F018FFFA2080009C
:1003700000F0DAFEFAE7C04655030010094A830090
:1003800094464022634410B51C68C0006240C024FB
:1003900014408022520113431C60034B9C4660446E
:1003A000416010BD04C0014000400140024B18688C
:1003B0008007C00F7047C04600C0064070B5EFF31D
:1003C000108C72B60D4D2B68002BFCD0BFF35F8FE5
:1003D0000724CB08C618C05C01230C40A3401C00B6
:1003E0000440034207D103433370BFF35F8F2C6097
:1003F0008CF3108870BD100001F030FD2C0100D08E
:10040000F8B54746CE46884680B5EFF3108C72B6F5
:10041000214D2C68002CFCD0BFF35F8F9A422CD862
:10042000D4080727055D061901241740BC402C425B
:100430001FD007210127894609E0D408055D061968
:100440004C4639001440A1400C00294211D0013221
:100450009342F2D201204042BFF35F8F00220E4B45
:100460001A608CF3108800280FDBC0BCB946B04678
:10047000F8BD2C4310003470EEE7BFF35F8F00230C
:100480002B608CF31088012040424346002BECD0B7
:10049000089801F0E3FCC0462C0100D00021044B79
:1004A000044ABFF35F8F02C39342FAD17047C0463C
:1004B000000100D0800100D0044A1078431CDBB258
:1004C000172B00D9102313707047C046C8030020B3
:1004D00000B5054B83B00100009318221F23034889
:1004E000FFF78EFF03B000BDA8520010800D002062
:1004F00001238340002904D0034A1360034A136098
:100500007047034A1360FBE780E200E000E100E08F
:1005100080E100E001228240034B1B6813405A1E19
:100520009341D8B27047C04600E100E00123834008
:10053000014A13607047C04600E200E0084B1030EB
:100540009B688000C358002B07D0064A00209B1AE6
:100550002F229A424041C0B270470020FCE7C046BB
:1005600000ED00E0CC030020024B10309B688000BF
:10057000C058704700ED00E070B50D00EFF3108635
:1005800072B60F4A1368002BFCD0BFF35F8F0D4B80
:1005900010309B6884001B590B4A934203D09D4244
:1005A00001D001F073FC074B9B681D51BFF35F8FB7
:1005B000BFF35F8F0022024B1A6086F3108870BD74
:1005C000240100D000ED00E0CD010010F0B5574649
:1005D0004E46DE464546E0B585B00600029117005E
:1005E000EFF3108B72B6674A1368002BFCD0BFF391
:1005F0005F8F0025644B5D579A46002D00DAA4E01A
:100600006B00624C03935B199B009846A146C14462
:100610004B4652469B79103613705D4BB2009B6877
:10062000019299580B1B2F2B34D95A4B994200D069
:10063000A4E0039B584A9C46584B6544AD00635365
:10064000434602336519E418554B0121043B1B1B3B
:100650001B055B0D13436B80524BEF71AB80FF2387
:10066000AB71029BAB604B460B431900484B019AA0
:100670009B689950BFF35F8FBFF35F8F0022414BA0
:100680001A608BF3108805B0F0BCBB46B246A94691
:10069000A046F0BD01200A008243D379BB422FD887
:1006A00045464E46130040491B1B5B415943090D0B
:1006B0003A4B63533A4B02356519043B5B1B1B05F0
:1006C000354D5B0D2B4373800426B446E04444440F
:1006D000131F1B1B4C46A17102991B05A1604946C3
:1006E0005B0D2B43A380314BE77101431360BDE7E2
:1006F0005800C01880002018C679BE422BD90200CD
:100700000623D356002BF3DA101D82462848804674
:1007100004267642B446E14450464E46361A300529
:10072000400D824656461C48957106439680039AB2
:10073000944665441D4AAD00641922604246A37187
:10074000029BA280E771A36090E701F09FFB002568
:1007500053465D5754E7101D8246908840050015AA
:1007600084464046D444664604302018301AE026B9
:100770000005400D360230438046C9E701F086FB94
:1007800057E7C046240100D085120020CC0300208A
:1007900000ED00E0CD01001000E0FFFF00A1FFFF31
:1007A000FC03002001BDFFFFAAAA0000014880470A
:1007B00001BD0000F0B5DE4657464E464546E0B561
:1007C0000C0083B0EFF3108972B6584A1368002BFF
:1007D000FCD0BFF35F8F564B9A68030010339F0025
:1007E000D559544A9046954232D0A54243D0524EF4
:1007F000AA1B2F2A2CD801228240924651464F4AEA
:1008000012681140019151464D4A1160BFF35F8F4C
:10081000EFF305829346002A33D101232A009A433D
:1008200093689C4208D177E04B005B189B00F3185B
:100830009968A1422AD01A00062151560029F3DAFC
:10084000019B002B19D052463E4B1A603B4B1A605D
:10085000374B9B68DD51BFF35F8FBFF35F8F002283
:10086000324B1A6089F3108803B0F0BCBB46B24625
:10087000A946A046F0BD1500EAE75246304B1A6083
:10088000E6E79342C9D001F001FBC6E706215956BD
:10089000002921DB4A005018800034188046A068E7
:1008A0009860E079D871062020569871002824DBE2
:1008B000A488F01A6405241544440019E0240005B6
:1008C000400D24022043988052181F4B9200B61806
:1008D0001A781970B271B3E7594600290FD1FF3168
:1008E00091711A49918018490A789A71184A9B1B8C
:1008F0005B415A43120D0A70A2E71648E3E7164A15
:100900001649D21A083A5002400D01439980144901
:1009100052080A43DA8093E7062151561300002952
:10092000B8DA5A46002AEAD14546DCE7240100D06D
:1009300000ED00E0CD010010CC03002000E100E05C
:1009400080E100E080E200E08512002001BDFFFFB1
:10095000AAAA000001BD00000604002000F0FFFF6D
:1009600000F8FFFF70B5EFF3058101240443EFF3B6
:10097000108C72B6214A1368002BFCD0BFF35F8F36
:100980001F4B05001F4AED1A6D416A43120D1E4DA3
:100990008900AE6852B27658A6421CD0062159563C
:1009A00091421CD012215956914222D01E215956F3
:1009B000914220D02A2159560324914210D0134B42
:1009C00019781A708171BFF35F8F00220B4B1A6088
:1009D0008CF3108870BDAB680D4C5C50EFE70024C1
:1009E0006100091989005B18FF21997109499980F3
:1009F000E5E70124F4E70224F2E7C046240100D031
:100A0000CC030020AAAA000000ED00E0851200201F
:100A1000CD01001001BDFFFF054B064A1360064AD9
:100A2000136053609360D3601361536193617047A7
:100A30008080808000E400E004E400E000B5074B23
:100A400083B001000093002205230548FFF7D8FC7E
:100A5000002801DB1F23181A03B000BDC452001088
:100A60008A120020024B9C46614489000160704755
:100A70004000003410B50400FFF71EFD0100200007
:100A8000FFF7F0FFFF232371BFF35F8F10BDC04658
:100A900010B50400FFF710FD01002000FFF7E2FF92
:100AA000FF23A380BFF35F8F10BDC04610B50400C5
:100AB0000120FFF70DFD044B9C4660448000206040
:100AC000BFF35F8F10BDC04640000034034B9C460F
:100AD000614489000160BFF35F8F704740000034BC
:100AE00083680B4810B584466144624409011201D1
:100AF0009A18591854684B6801209C4201D802D0BA
:100B00000020C0B210BD12680B689A42F9D8F7E70E
:100B1000FFFFFF0F0A4B1968EFF3108072B60A68E7
:100B2000002AFCD0BFF35F8F1B68BFF35F8F0022EA
:100B30001A6080F3108840BF002000217047C04633
:100B40004C120020F8B557464E464546DE46E0B505
:100B500099460CAB1C780DAB1B78060090469A4664
:100B60000768002C11D1BC7B002C42D065003B688B
:100B70002D19033D59194B78BB73002B00D1FB7322
:100B800000238B704B700B7004E065003B682D19DF
:100B9000033D5919B2682A4B94464246E3181B019B
:100BA00063441A604A465A600A9A9A600B9ADA605D
:100BB00000238B704B700B707B7B9B46002B2BD0E4
:100BC00022005946B8687B6898473A68002816D0D2
:100BD0005B4658465B005B445519033BA870D1182F
:100BE000D35C002B00D06B705B460C707B73A3450D
:100BF00013D0F0BCBB46B246A946A046F8BD5B4642
:100C00005B005B44033BD3189C705119525D002A72
:100C100000D05A705B460B707C7342464B46307D69
:100C200000F0A2FB051E06D05346002B03D1210085
:100C3000306800F0C3FD0E9B002BDAD01D70D8E7A2
:100C4000FFFFFF0FF0B5DE4657464E4645460023F0
:100C5000E0B58BB00893664B8200D45800239B46C6
:100C6000099000F021FB626806000F00EFF3108589
:100C700072B61368002BFCD0BFF35F8F23689C46CD
:100C80005B7B9946002B68D0A2685A4B90464B4438
:100C90001B01984443461A685B6810001900801BCA
:100CA000B941002963DD099800F05EFB00230022B2
:100CB000984600230692079300239A466368BFF381
:100CC0005F8F5A461A6085F310885346002B08D16F
:100CD0000028C6D10BB0F0BCBB46B246A946A04620
:100CE000F0BD089B414618024B461843D047626846
:100CF00006000F00EFF3108572B61368002BFCD0CE
:100D0000BFF35F8F002F4FDB33003B4302D02369DB
:100D1000002B60D12368D97B002907D04A005218E4
:100D200019688C4649466244033A51709A7B002AFE
:100D300001D14A469A734A46DA734B46E168013B51
:100D4000CA5C0132CA545B4623616368BFF35F8F9C
:100D50005A461A6085F3108883E7002300229846DC
:100D6000002306920793002300209A46A6E7002955
:100D700001D1002897D10021604600F09DFC434638
:100D80001A685B680692079343469B689A464346F7
:100D9000DB689846E3684B44013B1B7808931B02D1
:100DA00003432361002089E72369002BB2D0069A10
:100DB000079B921BBB41002B15DB59460491012177
:100DC000039149460291414601915146200000910C
:100DD000FFF7B8FEB7E700F067FA32003B001218E1
:100DE0004B41002BE9DA0122034B5242E5E7C046B2
:100DF00030120020FFFFFF0FFFFFFF7F10B5144CE4
:100E00006368002B04D00A211248FFF72BFE10BDA7
:100E10002300114A1021206800F068FB032000F035
:100E200037FA032000F010FB03200C4900F056FABB
:100E3000FFF742FB0A4B9C4603232375D0231B0676
:100E40001B6860446375074B80006060DC60DAE714
:100E5000140400204C120020E10A0010450C001080
:100E60004000003430120020004870471404002075
:100E7000F0B557464E464546DE46E0B585B001938F
:100E800010AB1B780600039300239A469846009205
:100E90007268EFF3108972B61368002BFCD0BFF3B1
:100EA0005F8F3568AC7B002C49D067002B683F19F9
:100EB000033FDB195A78AA73002A00D1EA73B1689C
:100EC000484A8C4600980199A218120162441060A9
:100ED00051600E9991600F99D16042469A705A7094
:100EE0001A706B7B9B46002B45D022001900A86826
:100EF0006B6898472A68002830D05B4658465B00EC
:100F00005B44D719033BB870D118D35C002B00D0D9
:100F10007B705B460C706B735C452DD0F3681B19BE
:100F2000013B18787368BFF35F8F42461A6089F3FC
:100F300010885346002B2CD10002204307E0736831
:100F4000BFF35F8F1C6089F310880120404205B019
:100F5000F0BCBB46B246A946A046F0BD5B465B006E
:100F60005B44033BD3189C70D119D25D002A00D09A
:100F70005A705B460B706C73307D009A019B00F0D9
:100F8000F3F982460028C9D02100306800F016FC31
:100F9000C4E7039B002B23D00E9B00200F9998479A
:100FA000030004000D000B431AD000290ADA009A4E
:100FB000019B121BAB4100920193002B0ADB039BA8
:100FC0009A4665E700F070F924184D4100940195A8
:100FD000002DF4DA0123044C5B4200930194EEE708
:100FE0000020B4E7FFFFFF0FFFFFFF7F70B54268EF
:100FF0000400EFF3108572B61368002BFCD0BFF32A
:101000005F8F2068CEB2437BB3420AD0FF230B40F0
:101010005A00D318026894466344033B9B78002B24
:1010200013D0E268FF2394460B406344013B0A0A55
:101030001978D2B291420ED000206368BFF35F8F5F
:1010400000221A6085F3108870BD22698A42F3D1AC
:1010500000202361F1E7310000F0B0FBEDE7C0466E
:10106000407D7047F0B504000D0006267642F71764
:10107000C64636196F4100B584B08F4214D811D0DE
:1010800000F012F932003B00121A8B41002B15DCE4
:10109000002B3ED02000290000F010F904B080BCE5
:1010A000B846F0BD8642EBD90026002700F0FCF8D8
:1010B00032003B00121A8B41002BE9DD0023029322
:1010C0000193154B3200009314483B00FFF7D0FE0C
:1010D0000028DFDB00239846BC46114A114F7B6A8B
:1010E0009C4504D8B96A8E42D4D99C45D2D11168A6
:1010F000EFF3108072B60B68002BFCD0BFF35F8F4C
:101100001368BFF35F8F4146196080F3108820BFDA
:10111000E5E7002ABED0D1E7150B0010140400202B
:101120004C1200200040054070B5060000F0BCF8ED
:10113000FA2204000D00002330000021920000F08C
:101140008BFF00196941002902DBFFF78BFF70BD9F
:10115000012001494042F8E7FFFFFF7F70B5EFF340
:10116000058305000C0084B0002B0AD0164A00202D
:10117000536A9C4203D8926A0130AA421FD304B03A
:1011800070BD124E02930193114B02000093300088
:101190000B00FFF76DFE011EE8DD20BF3000FFF7FA
:1011A00025FF094B0020596A8C42E8D89B6A013020
:1011B000AB42E4D2641A631E9C41E0B2DFE7E41A5A
:1011C000631E9C41E0B2DAE70040054014040020B1
:1011D000150B0010F0B5EFF30582D6464F46464694
:1011E0001000C0B51038EFF3108872B6214C236898
:1011F000002BFCD0BFF35F8F0123190081401E4DEF
:101200001F006963AA461D4D29601D4D2E78AC460E
:101210003500C5402F402B4209D1BFF35F8F2760B7
:1012200088F31088E0BCBA46B146A846F0BD5346E4
:10123000144D5F6A83005D59AF420ED3124A8E434C
:101240009B5862461670BFF35F8F0022226088F3BE
:101250001088002BE6D09847E4E70C4B92009C46A0
:10126000624413681360BFF35F8F0023236088F329
:101270001088D7E7280100D0004005403C700540A9
:101280008912002058120020600C0020D03F054039
:1012900010B50100024A0348FFF790F810BDC046A0
:1012A000E052001084120020034B596A0A00986A29
:1012B000596A8A42FAD1704700400540064A536A8B
:1012C0009942FCD807D1044B02E05A6A914202D1FC
:1012D0009A6A8242F9D370470040054070B5040015
:1012E0000D00EFF3108672B61A4A1368002BFCD07B
:1012F000BFF35F8F002D1BD02000FFF735F9164993
:1013000081420AD02000FFF737F901212000FFF7C2
:10131000EFF80123A340114A1360114BA400E550DC
:10132000BFF35F8F00220B4B1A6086F3108870BDED
:101330000B4BA200D5500122A2400A4920000B7895
:1013400093430B700449FFF735FA00212000FFF7A3
:10135000CFF8E5E7280100D0D5110010386005402E
:10136000600C002089120020F0B54F46D646464654
:10137000C0B507002F4C616A0D00A66A616AA942D8
:10138000FAD18B4208D805D00120E0BCBA46B1465C
:10139000A846F0BDB242F7D9EFF3108A72B62648DC
:1013A00001680029FCD0BFF35F8F0125BD402349B0
:1013B000204C8846097889462943C9B28C46414663
:1013C00060460870391D1E48890065630A51B900DE
:1013D0000B50216A0020294219D0616A0800A66AD0
:1013E000616A8142FAD18B4219D801D1B24216D832
:1013F000CC451DD00F4B1F201D625D6301230740AC
:10140000BB40104A1E38136043464A461A70BFF369
:101410005F8F0022084B1A608AF31088B5E700201E
:10142000BFF35F8F0022044B1A608AF31088ACE789
:101430000120ECE700400540280100D0891200207F
:101440005812002080E200E0EFF3108C72B60A49D7
:101450000B68002BFCD0BFF35F8F01238340074A4A
:101460000748136202789A430270BFF35F8F00232C
:101470000B608CF310887047280100D000400540B5
:101480008912002070B5050014001600002915D03F
:101490000C00002A12D080686B68984729680028E1
:1014A0000ED073009B196200033B1219CB18033A4C
:1014B0009C7088188A5C002A15D10670200070BDC7
:1014C00063001B197200033B9219CB18033A9E70FC
:1014D00088188A5C002A02D104703400EEE75A7042
:1014E00004703400EAE75A700670E7E730B58360AD
:1014F0000023CCB243730133047342608373C4731B
:101500000D000068012C06D9421C0133DBB21370B8
:1015100003329C42F9D1FF2129404B005918002386
:1015200040180338437030BDF8B5CE464746060034
:101530000C0080B5002907D04D0003686D18033DED
:101540005A195778002F04D12000C0BCB946B046C4
:10155000F8BD7900C919033988464344597889464A
:1015600000215970517073683A00210080689847D3
:101570003368002814D042469A18947059195B5D5C
:10158000002B00D053700F70270049463000FFF742
:10159000CBFF390002003000FFF774FF0400D3E7EF
:1015A000424641465D19AF709A185B5C002B00D033
:1015B0006B701470E9E7C046F0B557464546DE4605
:1015C0004E46E0B50D006B0001685B19DF1E04009C
:1015D000C85D83B00192CA19002850D043001B187F
:1015E000033BCB185E78B446002E1AD1019E002E24
:1015F00042D0E67B002E04D073009B19CB18033B2E
:101600005D70A37B002B00D1A573E57300282FD15B
:101610000023537003B0F0BCBB46B246A946A046B7
:10162000F0BD72006244033A89184A78904600225D
:101630004A7091465A70010032002000FFF722FFE5
:1016400043468246002B07D05B0021684344033B9E
:10165000CB185A78002A16D1424651462000FFF78F
:1016600011FF2168019BCA19002BC2D10028CFD0DD
:1016700043001B18033BCB1800219970C8E7019B5E
:10168000002BB6D1C4E750008018033809184878F9
:10169000834648464870587041462000FFF7F2FEE6
:1016A000594680462000FFF73FFF414602002000D8
:1016B000FFF7E8FE8046CFE7F0B557464546DE46E1
:1016C0004E46E0B583B00191457B04006B00006895
:1016D0005B19DF1EC15DC219002952D04B005B1897
:1016E000033BC3185E78B446002E1CD1019E002E29
:1016F00044D0E67B002E04D073009B19C318033B33
:101700005D70A37B002B00D1A573E573002931D157
:10171000002328005370617303B0F0BCBB46B2468F
:10172000A946A046F0BD72006244033A8018427890
:1017300090460022427091465A7020003200FFF716
:10174000A1FE43468246002B07D05B00216843443C
:10175000033BCB185A78002A17D142465146200045
:10176000FFF790FE019B01002068C219002BC0D139
:101770000029CDD04B005B18033BC31800209870A4
:10178000C6E7019B002BB4D1C2E750008018033894
:1017900009184878834648464870587041462000EA
:1017A000FFF770FE594680462000FFF7BDFE414618
:1017B00002002000FFF766FE8046CEE770B5040009
:1017C00000292CD0437B8B422ED00568480040185E
:1017D000033828188278002A21D053009B18033B35
:1017E000EA5CEE188A4202D11BE0002A08D05300BE
:1017F0009B18033BEB185A788A42F6D142785A700C
:1018000000230122837043702000FFF7D5FE617B27
:1018100002002000FFF736FE6073012000E0002088
:1018200070BD43783370EBE701221900FFF7C4FE67
:1018300060730120F4E7C046F8B5040006200D00EF
:1018400000F0C8F9002844D02A4B2B49E218534233
:101850005A418023DB039C469205284B62441A6060
:10186000274B1A6010008B689843FBD1214B8021D5
:10187000E3185A425341234A5B004900995206201B
:1018800000F0A8F92900C00000F060FBC30921D1D5
:1018900040270121260080256162A36200232C36A7
:1018A000AD0135432B60062000F094F9390080002B
:1018B00000F04CFB6023E26A53406E221A40802302
:1018C0005B0133431A60104B236310232B600D3BE5
:1018D000A364F8BD0D4A934203D900230C4F0D4970
:1018E000D8E77F221040013040089F0119003F18BF
:1018F0000300CFE70080FCBF00C0004000E00040D4
:1019000000F000406812002001030000FEFF00000C
:10191000C0FF3F00FFFF000030B50C2083B000F097
:10192000B7F9FEF743FD00280ED0944B944A1A6095
:101930005A609A60DA601A615A619A61DA611A62D1
:10194000904A5A6203B030BD8F4CA06700F0F4F9A2
:1019500001228E4B1A60636C012BFCD103228C4B4D
:101960001A60894A936B012BFCD101330121894A0A
:1019700089480093043300F033F90523874A009324
:101980000121874800F02CF9864B5A68FF2A02D8BB
:10199000802252005A608022784C7D4B21691201CE
:1019A000804D1A60002905D0606900F0CFFA01303F
:1019B0000138FDD1E0217B4B02201A6811408022C2
:1019C00052012A4311601968484003210140116007
:1019D00004219A681142FCD08022802192012A437E
:1019E00009011160802252005A606F4B23616F4BD6
:1019F0005968FF2900D85A600321644A6B4B116073
:101A000002399A681142FCD0E0201A681040802206
:101A100052011A4310601868484003210140022017
:101A2000116062498A681042FCD0802292011343FF
:101A3000802212011A6080225D4B52004A6063616D
:101A40005C4B5968FF2900D85A6080225A4BE169E3
:101A50001201584D1A60002905D0606900F076FA2D
:101A600001300138FDD1E02252490B681A40802331
:101A70005B012B431A60802380229B012B431201C0
:101A80001A6080223E4B52004A60E3614B4B59681A
:101A9000FF2900D85A608022494B216A1201474D24
:101AA0001A60002905D0606900F050FA0130013851
:101AB000FDD1E02241490B681A4080235B012B4392
:101AC0001A60802380229B012B4312011A6080231D
:101AD00080225B004B602A4BD2022362394B59684B
:101AE000914200D25A608022374B616A1201354D13
:101AF0001A60002905D0606900F028FA0130013829
:101B0000FDD1E0222F490B681A4080235B012B4353
:101B10001A60802380229B012B4312011A608023CC
:101B2000DB024B60174B6362284B5A68FF2A02D8CE
:101B3000802252005A608022254BA1691201234D58
:101B40001A60002905D0606900F000FA0130013800
:101B5000FDD1E0221D490B681A4080235B012B4315
:101B60001A60802380229B012B4312011A6080237C
:101B70005B004B600E4BA361E4E6C046840D002081
:101B8000006CDC021BB70000008000403CB000404D
:101B900030B00040002F685900800240008C86471A
:101BA00000C0024030800040001BB7003C80004075
:101BB000405973075480004054B00040608000409A
:101BC00060B000406C8000406CB000404880004035
:101BD00048B00040014B8000C0587047840D002081
:101BE000F0B5C646040000B50C2090461F000E005C
:101BF00000F0ACF94101091A8D01691AC9000918F0
:101C00008901404600F0A2F9069B3F041A032368AD
:101C10001743002B22DB1A4B1A4DE21853425A414C
:101C200080235B019C461203174B62441A60174BDA
:101C30001A601100AB689943FBD1C022231D9201A9
:101C40001A4321232660A06013602368002BFCDA6E
:101C50000823E760136080BCB846F0BD3F232268CC
:101C60001340B342D7D1A3681B051B0D8342D2D1C9
:101C7000EE22E368D2021340BB42CCD1EBE7C04670
:101C80000040FDBF00C0004000E0004000F0004008
:101C90008023024A9B000343D362704700800540C3
:101CA00010B5140080221B4BD2051A6000281AD0F0
:101CB0000123194A1843194BDA61194A42401A6242
:101CC000596298628022134BD2051A601549164A50
:101CD0001160E022D2041A60002C07D18022134B3D
:101CE00012061A6010BD0D4BD861EBE763011B1B98
:101CF0009A008023121912015B049A4200D30C4A05
:101D00000C4B1A60054B5A608022084BD2051A60B2
:101D1000E8E7C04600B00540D3C007B000800540EA
:101D20002D3FF84FFCFF01000820014000A00540B6
:101D3000FFFFFF0020120020AA23064A1B011360A8
:101D40002F230549D360054B19605368002BFCDA3B
:101D50007047C0460040024000B0FA0000600240F8
:101D60002C4B2D4A70B51A602C4A2D4B2D491A6008
:101D700014008B689C43FBD12B4D2C4EB54208D2EE
:101D8000013E761BB60808CD984723000134B342C4
:101D9000F9D1FFF7C1FD264A214B1A60214A936809
:101DA000DB43DB01DD09002BF9D14022214B224C22
:101DB000224E9A675A671A67DA66B44208D22368D5
:101DC0002000002B20D00834FEF762FEB442F6D388
:101DD0001B4E1C4CC022A168300000F0ADF9A6607B
:101DE000FEF75CFBFEF718FEFFF708F8164C174EDF
:101DF000B44208D2013E361BB60808CC98472B00E7
:101E000001359E42F9D170BD0834FEF733FEB4426D
:101E1000D5D3DDE700E00040BFCDFBFEFE7F3C00F8
:101E200000F0004000C00040CC040020DC04002092
:101E3000FFFFFF0100F00140BC040020CC040020A3
:101E40000000002000ED00E0DC040020E40400209D
:101E500000BEFDE710B5FFF7FBFFC0460FB400B5AD
:101E6000084883B000F09AFA049B002B07D005A91C
:101E70001800019100F018F8034800F08FFA0120D3
:101E8000FFF7E6FF045300101453001010B501488B
:101E9000FFF7E4FF1853001010B5002800D110BD63
:101EA00000F030FAFBE7C04610B5094A0300146899
:101EB00084B0002C08D0012200910648524203A9A8
:101EC000A047012004B010BD00F068FA0020F9E737
:101ED0001C120020991E001001480421014B1847D4
:101EE00040040020091F0010142310B501001888B9
:101EF00004331B88984710BD162310B501001888BD
:101F000002331B88984710BDF8B54746CE4680B5CA
:101F10000F1E19D01423994604330400002501260E
:101F200098464B461888434621681B88984701C449
:101F3000431E9841013540420640AF42F1D1300086
:101F4000C0BCB946B046F8BD0126F8E7114A936F08
:101F50009B0813D210665166002905D0FFE7FFE702
:101F6000FFE7516F106F704704B5002801D00020C3
:101F7000C04303F079F9002104BDC046F0B5146EEA
:101F8000556E576F166FFFF7E5FF14665566576776
:101F90001667F0BD000000D0132370B51D78012D29
:101FA00015D010DD1C48FFF7A7FF1C4C0100802254
:101FB000200000F0C1F8022D06D01948FFF794FF69
:101FC000184B186070BD154C174BA364F5E7164B02
:101FD000124C23606360A360E36023616361A361CB
:101FE000E36123626362A362E36223636363A363C7
:101FF000E36323646364A364E36423656365A365A7
:10200000E36523666366A366E36623676367A36786
:10201000E367A364D1E7C04653440000F005002005
:102020004C330000481200202D20001007B56046F8
:1020300001880A0A0230DF2AFAD1C9B2820804D321
:10204000028840880004104300E00068014A5050B4
:10205000039007BDF005002051434343C9188C4647
:10206000110C83B24B4310B4040C614392B280B2A2
:10207000504362431C041B0C001910BC594113044B
:10208000120CC0185141614470470000132310B571
:1020900012481C78FFF730FF0100012C0AD003DD45
:1020A00080220F4800F048F80E48FFF71DFF0E4B46
:1020B000186010BD0A4C5422200000F03DF80B4B74
:1020C0006365A365E36523666366A366E3662367CA
:1020D0006367A367E3672362E361E5E753460000B4
:1020E000F00600204C33000048120020F1200010C0
:1020F00007B5604601880A0A0230DF2AFAD1C9B260
:10210000820804D3028840880004104300E000687D
:10211000014A5050039007BDF006002001480421F9
:10212000014B184750040020091F0010014B1B6889
:102130001847000050040020014B5B68184700005E
:1021400050040020030010B5080011001B689847D8
:1021500010BDC046F0B546464F46D646C0B5437D95
:1021600080460E001700002B46D0002A3FDD4B1E94
:102170009946244B0125002400209A460DE04B4649
:102180001B5D0D3B5A425341325DDBB20A2A0BD034
:102190002B00013401359F421ADD002CEFD143465C
:1021A000325D1B7D0A2AF3D1002BF1D1A04204DA63
:1021B0004346211A1B6830189847434650461B680F
:1021C00002219847013428002B0001359F42E4DCAE
:1021D000874204DD4346391A1B6830189847F619C0
:1021E000013E33780D3B5A42534142461375E0BCE1
:1021F000BA46B146A846F0BD0368110030009847C2
:10220000F5E7C04688530010F0B5DE4657464E4607
:102210004546E0B585B017001C0006000D00FFF72D
:1022200043F80023304A12184B41002B58DB2F494A
:1022300008008A4603F030F801906B1C03D130008F
:1022400002F0D2FF0500002C25D1294B9846294BDE
:102250001C68002C15D0002F20D1274F02E02469E4
:10226000002C0ED02368002BF9D03B68002B01D046
:10227000A342F4D120002A003100C0472469002C79
:10228000F0D1019B002B27D105B0F0BCBB46B24674
:10229000A946A046F0BD194B9846D8E7164B99467B
:1022A00002ABDF1D0A239B4602E02469002CE8D024
:1022B0002368002BF9D04B461B68002B01D0A342AA
:1022C000F3D12A0031002000C0475B4601223900CB
:1022D00020003B70C047E8E7504602F0BDFFD3E75F
:1022E0000122074B5242A2E740420F00C4040020E3
:1022F00055210010140E0020180E0020452100105A
:10230000FFFFFF7FF0B5CE46474680B583B06B46F2
:102310000600DD1D2870FEF7C7FF00231A4A1218B9
:102320004B41002B2BDB19490800884602F0B4FF13
:10233000174B81461C68002C14D0164F02E024690C
:10234000002C0FD02368002BF9D03B68002B01D064
:10235000A342F4D1200001222900FFF7FBFE2469EB
:10236000002CEFD14B46002B05D1300003B0C0BC90
:10237000B946B046F0BD404602F06EFFF5E70122D7
:10238000054B5242CFE7C04640420F00C404002034
:10239000140E0020180E0020FFFFFF7F70B5040010
:1023A00002F022FF00230100050001222000FFF7B8
:1023B0002BFF084B1C68002C06D06368002B05D04F
:1023C00098472469002CF8D1280070BD2469002C9E
:1023D000F3D1F9E7140E00200A4A1368002B05D147
:1023E0000CE01A001B691032002B07D09842F8D17C
:1023F000002902D103691360016170470029FCD0F4
:102400001060FAE7140E002010B500F0C7F800F0D5
:10241000B3FA012010BDC046F0B50D1E15DD0E4B00
:102420000D271A680D4B4519D31859424B410C49D9
:102430005B005E5E20210478A64207D093691942B2
:10244000FCD101301460A842F5D1F0BD9369194266
:10245000FCD11760F2E7C0466C1200200080FCBF80
:102460006812002030B504000D1E26DD002010216A
:102470001B4B013C1A689369194219D101309369C9
:102480001942FCD1136823548542F4D1154B1B68C3
:10249000002B0CD050239363516B183B34320B400C
:1024A0001100802252010A431360002815D030BD6C
:1024B0000C4B1B68002BEDD1F7E70A4B1B68002B78
:1024C0000BD050223821064B1B689A635A6B343369
:1024D0001140802252011343196003204042E6E775
:1024E0006C120020700D0020064B10B51B68002BED
:1024F00006D00021044A12689163044A1068984784
:1025000010BDC046700D00206C120020780D002018
:102510001D4BF0B51A68C64698461C4B0E00D318E2
:1025200059424B411A4F14331C00050000B53B685B
:10253000002807D0002B11D0164B3D601E6080BCD8
:10254000B846F0BD002BF7D0906300212000FDF7C6
:10255000CFFF20001049FEF72DF9EDE720000E49CE
:10256000FEF70AF801212000FDF7C2FF4346502282
:1025700038211B689A635A6B343311408022520110
:1025800013431960D8E7C0466C1200200080FCBFDE
:10259000700D0020780D0020E924001010B50C4BC0
:1025A0000C4C1B780C4B02211B780C4B0020236039
:1025B000FDF7E4FE02210120FDF7E0FEE1212068A5
:1025C0004902FFF739F901210548FFF705FF10BD62
:1025D000D05500106C120020D4550010004003406C
:1025E000600400207047C0460022014B1A707047FB
:1025F000861200204B790020FF2B0BD18B79002B0A
:1026000008D1CB79012B05D1082A03D98A78024B4E
:1026100009301A707047C0468612002001207047AA
:1026200070B5002915D115495379107909781B0225
:1026300003430020994200D070BD5378012B0AD08B
:10264000022BF9D1002064220021FFF729FB012091
:10265000F2E70120F0E79478D278050012021443E3
:10266000D20502D5620A93401D000548FFF73CFCE5
:102670007F210300214028009847C0468612002091
:10268000554200000123037000487047CC530010EE
:1026900048780B788A780002184312041043962277
:1026A000CB7810B51B060343D200934200D010BD77
:1026B0000348FFF719FC0021030008009847C046B3
:1026C00055420000024B1860024B19607047C0462B
:1026D000740D00207C0D002010B5024B1878FDF71A
:1026E00025FF10BD87120020114B70B51A68002A13
:1026F0001AD0EFF3108172B610680028FCD0BFF337
:102700005F8F00220B48596002701B68BFF35F8F18
:102710001A6081F3108800240025074B1878FDF714
:1027200005FF2900200070BDFA240025A400F4E76D
:1027300028120020881200208712002070B50400A3
:1027400000200E0001F0B8FF002832D0002001F078
:10275000CBFF00282DD0FEF7A7FD0023164A121844
:102760004B41002B21DB154D280002F095FD002880
:102770001FD0002001F0A0FF002808D1032401F0A1
:1027800005F86442280002F067FD200070BD0020BB
:1027900001F0AAFF0028F1D021003200002001F052
:1027A000AFFF041EEED1033CECE70122044B524282
:1027B000D9E703246442E8E740420F0050120020AA
:1027C000FFFFFF7FF0B5DE4646464F46C0B5804668
:1027D0000C00FEF769FD0023324A12184B41002B12
:1027E00053DB314908008B4602F056FD002804D126
:1027F000E0BCBB46B146A846F0BD002001F05CFF3E
:10280000002846D00027002C3BDD284E11E043462F
:102810000020D91901F0E8FF814600F0B7FF002041
:1028200001F0A6FFFEF740FD306071604F44BC42EE
:1028300027DD002001F0F2FFE51B0200A84200DDC9
:102840002A00002AE3D100F0A1FF002001F090FF50
:10285000002001F031FF002813D0002001F0DEFF3E
:102860000028E4D1FEF720FD326873680D000021D6
:1028700084460F4812184B419D4202D8D7D1944547
:10288000D5D9584602F0E8FCB2E70122094B524282
:10289000A7E700200021054B18605960584602F058
:1028A000DBFCA5E740420F0050120020E8050020A5
:1028B00020A10700FFFFFF7F10B5224C84B000214C
:1028C000200002F0D9FC00281CD11F4B1A68002AF6
:1028D00016D0EFF3108172B610680028FCD0BFF359
:1028E0005F8F01241948596002781B68D2B20470C6
:1028F000BFF35F8F0020186081F31088002A07D093
:1029000004B010BD00F042FF200002F0A5FCF7E784
:10291000FEF7AAFA0400FEF7C7FCFA220023920091
:1029200012184B41002B09DB01210291002101917A
:10293000074920000091FEF79BFAE1E70122054BD1
:102940005242F1E750120020281200208812002085
:10295000E9260010FFFFFF7F054B10B5186800281F
:1029600004D0044B0022196801F0DCFC10BDC04605
:10297000740D00207C0D0020D02310B51B0684B000
:102980001C68FEF771FAFEF76BFBA04202D0002034
:1029900004B010BD264B1B7802F028F92548FEF73D
:1029A00069F80120FEF74AF8FF23234C23492070E1
:1029B0001840FDF7E1FD20780121FDF799FD052084
:1029C000FDF7BCFD002822D1FEF74EFA0400FEF709
:1029D0006BFCFA220023920012184B41002B22DBE1
:1029E0000121029100210191154920000091FEF77B
:1029F0003FFA0822040000211248FFF797FB002C41
:102A0000C5DB11480121FFF7E7FC0120C0E70022E8
:102A10000E490520FDF7DAFDFDF74EFD01000948DE
:102A2000FEF754F8EDE70122094B5242D8E7C046C1
:102A3000D85500105012002087120020B92800102D
:102A4000E92600102812002078040020D926001062
:102A5000FFFFFF7F00487047845400100048704714
:102A60003054001070B5040017480378002B21D0B3
:102A7000002C06D1C1241548154BA40043800480C6
:102A800070BD052C1DD8134B1048A400E558811CBF
:102A9000002304E001330A800231132B0ED0EA5CDC
:102AA000DCB2002AF6D1C0230134E4B264009B00FA
:102AB0001C43E4E7112100F017F8D9E7CA24A40069
:102AC000DDE70020DCE7C04670120020EC0D00209E
:102AD000090400009854001010B5024800F0D8F81E
:102AE00010BDC0464012002030B54B1E012900D158
:102AF000A7E0664A11780D112C0030349F2900D9C7
:102B0000A2E00470012B00D1BEE00F211478214017
:102B10000C003034092900DD98E04470022B00D10C
:102B2000B2E054782511290030319F2C00D990E073
:102B30008170032B00D1A7E00F2121400C0030341D
:102B4000092900DD87E0C470042B00D19CE0947853
:102B50002511290030319F2C00D97FE00171052B10
:102B600000D191E00F2121400C003034092900DD13
:102B700076E04471062B00D186E0D4782511290037
:102B800030319F2C00D96EE08171072B00D17BE0A2
:102B90000F2121400C003034092966DCC471082B58
:102BA00000D171E014792511290030319F2C5FD8B4
:102BB0000172092B68D00F2121400C003034092903
:102BC00058DC44720A2B5FD054792511290030312A
:102BD0009F2C52D881720B2B56D00F2121400C0014
:102BE000303409294BDCC4720C2B4DD0947925115B
:102BF000290030319F2C00D9073101730D2B43D0B0
:102C00000F2121400C003034092901DD37310C003F
:102C100044730E2B38D0D1790C11220030329F2909
:102C200000D9073282730F2B2ED00F220A401100D9
:102C30003731092A01DC30321100C173102B23D047
:102C400010300023037030BD07345AE737310C00D1
:102C500063E707316CE737310C0074E707317DE734
:102C600037310C0085E707318EE737310C0095E7E7
:102C700007319DE737310C00A3E70731AAE7373169
:102C80000C00C4720C2BB1D1C018DAE7401200203E
:102C900030B5002589B004000922002101A8009563
:102CA000FFF744FA0922002105A80495FFF73EFA30
:102CB0004B236A466846137004A90D2202F0C4FA39
:102CC0001521082220006944FFF736FA09B030BD0B
:102CD000F0B5982357464546DE464E466C4AE0B569
:102CE000D75880253C006D02883B9A4683B02C4023
:102CF0002F420FD001222321664B00205A54DA7054
:102D0000654901F073FA8022644B92021A65644BA4
:102D10002C009A46FB0617D480235B011F4245D145
:102D20008023DB011F4200D088E080231B021F426A
:102D300000D091E0BC4200D0A5E003B0F0BCBB469F
:102D4000B246A946A046F0BD514B9B6D9846002B5C
:102D500027D0524B00249B46012399464346012627
:102D6000B8461F0004E001347600E4B2202C17D0EE
:102D70003742F8D05B469E654B466508A3436D001D
:102D8000ED18444B6D019C466544280000F08AFB19
:102D900000286CD10134B743E4B27600002FE5D1AE
:102DA000474680235B0154461F42B9D01C43002391
:102DB000374A00211360384A3A489360D3603A4A50
:102DC0009360D360394A9360D360394A9360D3608B
:102DD000384A9360D360384A9360D360374A93602F
:102DE000D360374A9360D360364A9360D360364AE3
:102DF0009360D360354A9360D360354A9360D36063
:102E0000344A9360D360344A9360D360334A93600A
:102E1000D360F0229200FFF789F9314B314A00214B
:102E20001A600020012201F0B7F980221B4B120327
:102E30001A658023DB011F4200D176E701220421BD
:102E400000201C4301F018F91022144B1A6580234E
:102E50001B021F4200D16DE70122052100201C4307
:102E600001F00AF980220D4B12011A6562E74B4608
:102E7000AA8AA97800200093002301F0DFF9280036
:102E800000F04CFA86E7210017487940FEF7E6FF8C
:102E9000000011501C0E0020000010500030115096
:102EA000100001005C0E00200800105010001050AF
:102EB0001800105020001050280010503000105002
:102EC0003800105040001050480010505000105072
:102ED00058001050600010506800105070001050E2
:102EE0002412002080011050B054001010B50121B0
:102EF0000520FDF7FDFA10BD10B5002200210248A3
:102F000000F034FA10BDC0463C0E00208022024B77
:102F10005202DA647047C04600201150F0B5C64630
:102F200000B5060000F0D4F90C23354D0520AB6741
:102F30003449FDF721FB40239846334C40220021C1
:102F40002000FFF7F3F843460127A3832121002344
:102F50002E4A6770A260136063545F3161844146FA
:102F6000A187023963542A4A2A496360E260A16258
:102F70000B60E262284A63629360D360274A2000B4
:102F80009360D360264A00219360D360254A403085
:102F90009360D360244A9360D360244A9360D360E3
:102FA000234A9360D360234A9360D360224A93609C
:102FB000D360224A9360D360214A9360D360214A50
:102FC0009360D360204A9360D360204A9360D360BB
:102FD0001F4A9360D360F0229200FFF7A7F81D4BC1
:102FE0001D4A30001A6080239B052F64EB649023F8
:102FF0001A4AEA50FFF78AFF80BCB846F0BDC046C7
:1030000000001150D12C00101C0E00208400105024
:1030100000011050800010500000105008001050A7
:1030200010001050180010502000105028001050B0
:103030003000105038001050400010504800105020
:103040005000105058001050600010506800105090
:1030500070001050241200208001105010D0010088
:103060000B785B0602D14B78052B00D070478A782D
:10307000014B1A60FAE7C04600001150F0B5CE4689
:103080004746072380B548798E780A790340C87887
:103090007F21800731401B02F40913434F00820F48
:1030A000944691462A4D3A195201AA189670012663
:1030B00066405670604600269383D6709077CA00AB
:1030C000012C29D023488446880162448446AC44BC
:1030D000604682601660002929D01F4AC9009046C8
:1030E000414441603F223F3393434A46022A00D184
:1030F0005B001A493F190A687F01D3180B60184B0F
:10310000ED195340EA604A469006184380231B0697
:1031100018436B68186010E01248844688016244C6
:103120008446AC4460468262166000290AD10023BE
:1031300064012D196B600C4BEB600120C0BCB946DB
:10314000B046F0BD064AC900904641444162C9E715
:103150001C0E002084001050040010502412002087
:1031600000001050800010500001105000231C4A35
:1031700010B59360D3601B4A00219360D3601A4A54
:103180001A489360D3601A4A9360D360194A9360D7
:10319000D360194A9360D360184A9360D360184A89
:1031A0009360D360174A9360D360174A9360D360EB
:1031B000164A9360D360164A9360D360154A9360B1
:1031C000D360154A9360D360144A9360D360F022B1
:1031D0009200FEF7ABFF124B124A1A6010BDC046B8
:1031E0000000105008001050100010505C0E00201D
:1031F00018001050200010502800105030001050BF
:10320000380010504000105048001050500010502E
:10321000580010506000105068001050700010509E
:10322000241200208001105010B57F200C00204097
:103230004000E409110000191A00034B4001C018B6
:1032400000F094F8012010BD1C0E00207F22130016
:1032500010B50B400A420BD0C90980225800401813
:103260000649400140181201002100F05DF810BD30
:1032700002220348C909521A8266EEE71C0E00209A
:10328000002011507F22100010B508400A4200D1E2
:1032900010BD0023C9094000401804494001081826
:1032A00000220349C37000F03FF8F1E71C0E002034
:1032B000FFF7FFFF7F21C309034A9B00014010B5C0
:1032C0009A580248FEF7CAFD90040020C45400102A
:1032D00080220D4B520410B51A600C4B0C491A6039
:1032E00010008B689843FBD10A4C9C2200212000DF
:1032F000FEF71CFF8022002152010748FEF716FF4F
:103300000923636710BDC04600E0004000F00040A4
:1033100000C0004000001150000010500023037452
:10332000438283828361704710B58368002901D08E
:103330001C682140002A11D08024E400114322425D
:103340000CD01A6822420BD1074A0A401A60FFE7E4
:10335000FFE7FFE7FFE7FFE7FFE78368196010BDBE
:103360008078FFF7A7FFC046FFFBFFFFF0B5C6461A
:10337000002300B5838201330374436804001E6890
:10338000838B81611F1C934200D9171C8025BFB21B
:10339000D21B93B2E278ED0063823D43002A02D053
:1033A0009025AD013D4301204240E2706278002A41
:1033B00051D0002B1DD1A023DB011D43354B1B6CCD
:1033C000354B33408026B6051E436368A2681E60F5
:1033D00013685B055AD4314B2B401360FFE7FFE7BE
:1033E000FFE7FFE7FFE7FFE7A3681D6080BCB84683
:1033F000F0BD802252011543264A126C920703D475
:10340000A278D209012ADBD1A28B111C9A4200D9E1
:10341000191C80278AB2FF009B1A90461743E27856
:103420009BB26382002A03D090274146BF010F431D
:1034300001214A40E2706278002A19D0002B02D1A3
:103440008023DB011F43164B3F043340A026F605C3
:103450003D431E43B9E73A00E068FEF76DFEA369FD
:103460009C46802367441B021D43A761638AA0E733
:10347000E0684246A1694030FEF75EFEA36943441E
:10348000A36180231B021F43638AD7E7A078FFF75D
:1034900011FFC04600001150FFFFFFAFFFFBFFFF11
:1034A000FFFFFFDFF0B5C64600B5067C0400002E26
:1034B00000D1D3E083681A681D684378AD05AD0D6F
:1034C000002B51D1838AEB189BB28382A18B8D4252
:1034D00007D20023638263681B68300080BCB84653
:1034E000F0BD62681268520002D58D4200D175E0CD
:1034F000638A002BF1D062681F1C16688B4200D9CA
:103500000F1C8025BFB2DB1BE2789BB2ED0063820B
:103510003D43002A02D09025AD013D4301214A40A0
:10352000E2706278002A68D0002B2AD1A023DB0148
:103530001D434F4B1B6C4F4B33408026B6051E433B
:103540006368A2681E6013685B0500D58DE04A4B76
:103550002B401360FFE7FFE7FFE7FFE7FFE7FFE729
:10356000A36800261D60B8E72A00C1688069FEF7DD
:10357000E3FDA38AA269EB189BB25219A382A26150
:10358000A4E7802252011543394A126C920703D4F2
:10359000A278D209012ACED1A28B111C9A423FD81F
:1035A00080278AB2FF009B1A90461743E2789BB2AD
:1035B0006382002A2FD101214A40E2706278002AFA
:1035C0003ED0002B02D18023DB011F432B4B3F0455
:1035D0003340A026F6053D431E43B1E7A2681568B7
:1035E0006278AD01AD0D002A1CD1EB18A3828D428B
:1035F00000D37DE7002363826FE73A00A169E068AA
:10360000FEF79AFDA3699C46802367441B021D4375
:10361000A761638A88E790274146BF010F43CAE745
:10362000191CBDE7E1682A004031A069FEF784FD5E
:10363000A38AA18BEB18A382A3695B19A361D6E7C8
:10364000E0684246A1694030FEF776FDA369434435
:10365000A36180231B021F43638AB2E77F23817823
:10366000074A08481940FEF7F9FBA078FFF722FE49
:1036700000001150FFFFFFAFFFFBFFFFFFFFFFDF69
:1036800090040020E4540010024B5878431E9841E7
:10369000C0B27047440B0020024B18784007C00F9F
:1036A0007047C046440B0020014B18787047C04655
:1036B00082120020F8B54746CE4680B5294F050056
:1036C0003B78002B04D00120C0BCB946B046F8BD01
:1036D000532200212448FEF729FD244C2000FDF749
:1036E000C9F9234B1C60234C20001C30FDF7DEF988
:1036F000200001F0C5FC204B204E1C60204B98465A
:10370000002B04D03000FEF7BDFF1E4B1860424670
:1037100000243378002A1DD01B4A9046194A91464E
:103720009C4210D31BD14346984701343378E4B20E
:10373000A342F5D22800FFF7F1FB2800FFF7D6FBE4
:1037400001233B70BFE74A46630012681B19DB0088
:103750009B58E9E701F06EF83378002BEAD000239C
:103760001B68FFDE82120020440B0020FC0A0020B0
:10377000980B0020980400209C0B00208112002050
:10378000852600100C08002035480010F0B5DE46F4
:1037900057464E464546E0B58BB001F02DFA00285D
:1037A00000D144E1C24BC34E9B4607AC3568EA6981
:1037B000EFF3108172B61368002BFCD0BFF35F8F5C
:1037C00029622800210001F0CFFAEA692B6ABFF3D1
:1037D0005F8F0021116083F31088002800D126E15B
:1037E0006378082BE2D85A469B00D3589F466368FB
:1037F000002BDBD0A0689847D8E77F222179AE4B19
:103800000A405500C8095B191B1818000127303001
:10381000C578BD43C570C5780337BD43C570002A60
:1038200000D10BE1A54ADB7C002A06D0A44A12781D
:10383000934200D291E19B1ADBB2002B00D0F6E05C
:10384000A04D62792078A368A847AFE701229A4F7C
:1038500001213B78042013433B703323FA5C8A43F5
:10386000FA54FA5C8243FA540133FA5C8A43FA54FC
:10387000FA5C8243FA54237800209A4600F08AFECC
:10388000602223791A40602A0DD0402A00D1F2E04C
:10389000DB06DB0E012B00D16AE1022B00D121E116
:1038A000002B00D1F6E020780021FFF7CFFC80212B
:1038B0002078FFF7CBFC79E77F4B1B78DB0700D440
:1038C00074E7814B002B00D170E700E000BF6DE78B
:1038D000794B1A78D20700D468E77C4A002A00D1D5
:1038E00064E718780007C00F00E000BF5EE7744D82
:1038F000724A00272B78002A00D1B6E0744A90461D
:103900009F4208D39F4200D0B2E00137FFB29F42EE
:1039100000D94BE7F6D2414609687A008C46D219A5
:10392000D20062445269002AEFD0207890470137D4
:103930002B78FFB29F42E3D938E72378604D5F4A86
:10394000984600272B78002A00D186E0614A9146EC
:103950005F4A92462A0045469046BB425ED800D058
:1039600078E04B4628009847434601371B78FFB262
:10397000BB42F2D2504D532200212800FEF7D6FB65
:103980001022FF21E81CFEF7D1FB28002022FF2196
:103990001330FEF7CBFB00F0F3FD4F4B002B00D1B3
:1039A00004E700E000BF01E72378454D434A98460D
:1039B00000272B78002A47D0464A9146444A92462F
:1039C0002A00454690469F421FD343D14B462800CC
:1039D0009847434601371B78FFB2BB42F3D2364DBE
:1039E000532200212800FEF7A1FB1022FF21E81C32
:1039F000FEF79CFB28002022FF211330FEF796FBE8
:103A000000F0BEFD2379AB70D0E6524612687B0011
:103A10009446DB19DB0063445B68D8E752461268C2
:103A20007B009446DB19DB0063445B689AE70BB0CC
:103A3000F0BCBB46B246A946A046F0BD62792078EC
:103A4000A36800F0BBFDB1E6404600F031FF2B78E3
:103A5000002BC4D000235B68FFDE404600F028FF47
:103A60002B78002B00D185E7F4E7002B00D19DE6F1
:103A700000235B69FFDE1948002800D113E700F03E
:103A800089FD0021504608AA00E000BF002800D0B0
:103A90008CE608E7202A00D19FE0002A00D002E748
:103AA0006379092B00D9FEE60D4A9B00D3589F4647
:103AB000105500109C0B0020440B002085260010A0
:103AC00081120020A54A0010000000000000000044
:103AD0000C080020B14800100000000000000000A9
:103AE000345500107023217A0B4200D0DBE60F33EF
:103AF0000B405B00F818CD090093C14B4019C07C06
:103B0000002B06D0BF4B1B78984200D288E0C01A29
:103B1000C0B200287ED1002A00D015E1BA4B019333
:103B2000637998460223424699469A43012A00D176
:103B30000EE14346002B00D0B5E6009B06AAFB1819
:103B40005D193035EB7802329B07DB0F138050464E
:103B5000022308A900F0B6FC28E65A00D318AB4AA5
:103B6000DB001268D318002B00D160E71D6968E6FE
:103B7000237A0F2B00D996E6A14AFB18DB78002A9E
:103B800005D0A04A1278934264D39B1ADBB2002B73
:103B900000D088E69E489C4D00F0FCFC0021504679
:103BA000EB6808AA9847002800D0FFE560221500BE
:103BB00023791D401A4200D075E663790A3B012B38
:103BC00000D970E600F0E6FC63790A2B00D1EEE044
:103BD000504608A900F05EFCE8E5237A0F2B00D9D7
:103BE00061E6874AFB18DB78002A06D0854A1278FE
:103BF000934200D2D0E09B1ADBB2002B00D052E6F9
:103C00008348814D00F0C6FC00215046EB6808AAAD
:103C100098473BE7002A00D045E6002301937FE761
:103C200043009C46794B60441B68C0009C460300DF
:103C300063440193002A00D172E7002B00D132E6E1
:103C4000D86800F0A7FC019B00215046DB6808AA59
:103C500098471BE76D4A5D00EB181568DB00ED180F
:103C6000002D00D11FE6E86896E7E388012B00D01D
:103C700019E608223B785046934308A93B7000F0B0
:103C800009FC93E50220397806AB9A1C8B0689085B
:103C9000DB0F01400B4359E7A37901931A007B78AE
:103CA0009A4207D07B78002B00D01EE1019B002BAD
:103CB00000D0B3E0019B504608A97B7000F0EAFBFE
:103CC00074E57B7806AA023213705046012308A9D6
:103CD00000F0F8FB6AE5E088030AC0B20F2B00D9B8
:103CE000E1E54C499A008A58974608A800F058FC2C
:103CF0005046A179FFF700F902223B7813433B704D
:103D000054E5E388012B00D0CDE508223B785046EE
:103D1000134308A93B7000F0BDFB47E5022B00D11F
:103D200094E13D4B002B00D1BDE500E000BF020057
:103D3000002A00D1B7E5D37891781B020B43504697
:103D400008A900F0BFFBA1E62F4B3148019378E7AB
:103D5000E288002A09D14346012B3DD0009BFB1885
:103D60005D193035EB789B072AD5019D002D00D1D8
:103D70001CE5EB681800009300F00CFCEB680021D8
:103D800008AA50469847002000F004FC3423FB5C4E
:103D9000DB0700D50AE51BE71C4A5D00EB18156838
:103DA000DB00ED18002D00D17DE5E8682AE706ABC1
:103DB0009A1C5046012308A9157000F083FBF5E416
:103DC0005046FFF743FA0222EB7813430122EB70CF
:103DD000EB781343EB70C8E7009BFB185D19303597
:103DE000EB789B07C1D55046FFF74CFA4A46EB7873
:103DF00093434246EB70EB789343EB70B5E7C046D4
:103E000085260010811200209C5500100C0800200F
:103E1000C14900105C55001000000000581EC0B2DF
:103E2000FEF71CFE002800D13DE543780493022BE9
:103E300000D038E50121C3799A115B110A400B408B
:103E400052011B0113433A782F318A4313433B70CD
:103E500009239946C37882781B021343C31881440F
:103E60000393039B4B4500D8E9E04B4601225B7866
:103E700000920B2B07D14B46DB7800934B461B7807
:103E800099444B465B78042B00D00CE54A46039BD3
:103E900000259B1A9BB202936E4A6F4B1B78002A37
:103EA00016D162E0AB4271D16C4A6D4B90464946E7
:103EB0005046029A98478446082802D9029A8242BC
:103EC00069D2654B01351B78EDB2AB4200D2EAE412
:103ED000AB42E7D9634A6B0012685B199046DB007E
:103EE0009844434605929B68E1E75046FFF73EF948
:103EF000BB78594D574A009300212B78002A2DD0CA
:103F0000584A90462A000D0091469D421DD300D08C
:103F1000A0E5554B504698474B4601351B78EDB20E
:103F2000AB42F2D2532200213800FEF7FFF81022F4
:103F3000FF21F81CFEF7FAF838002022FF21133089
:103F4000FEF7F4F8009BBB70B0E6424612686B00C7
:103F500094465B19DB0063445B68DBE7504600F086
:103F6000A7FC2B78002BDDD074E5029B49461A0094
:103F70005046984600F0B2FC8446082801D94045D6
:103F800007D9354B1B78002B00D18CE400239B68AC
:103F9000FFDE324B9846009B012B48D0009B002B44
:103FA00010D04B469978002305E0D5700133009A74
:103FB000DBB2934206D2CA18D2B2BA18D078FF2820
:103FC000F3D070E43800E0462B00494662461330D7
:103FD00000F052FE204BC1441B78AB4200D340E7B7
:103FE00061E4224B002B00D15DE400E000BF020041
:103FF000A1E6FEF72FFD1223020008A9504600F0AB
:1040000061FA43E51A4B002B00D14CE400E000BFFD
:10401000021E00D147E45046137808A900F052FA76
:1040200034E52189FEF71EFD021EF4D13BE4424631
:104030000B4B92689A42B4D1049B0093B1E70D4BAD
:10404000002B00D136E600E000BF33E6FEF706FDA8
:1040500002006DE685260010811200209C5500109C
:10406000DD4800100C080020B148001000000000DE
:10407000000000000000000030B587B005000C0013
:104080000C2200216846FEF751F86B461D705C70EB
:10409000042C4FD009D8022C34D0032C19D13C4B1E
:1040A0001A78520758D407B030BD052C11D1384BBF
:1040B0001A78D207F7D504211A788A431A70354B3B
:1040C0001C68E269EFF3108172B61368002B09D106
:1040D000FBE7304B1C68E269EFF3108172B613689E
:1040E000002BFCD0BFF35F8F21626946200000F0F7
:1040F00009FFE269236ABFF35F8F0021116083F338
:104100001088D0E70121224B1A788A431A701A7856
:104110000331A2431A7000225A701A788A431A7027
:104120001C4B1C68E269EFF3108172B61368002B18
:10413000D8D1FBE7164B1A78D207B4D504211A78E8
:104140000A431A70134B1C68E269EFF3108172B6D0
:104150001368002BC6D1FBE704211A7803A88A4311
:104160001A7000210C22FDF7E1FF6B466A461D73B1
:1041700005235373074B1C68E269EFF3108172B695
:104180001368002BFCD0BFF35F8F216203A9ADE75A
:10419000440B00209C0B002070B584B001AC0600DD
:1041A0000D000C2200212000FDF7C0FF01236370E9
:1041B0000D4B25711D682670EA69EFF3108372B606
:1041C00011680029FCD0BFF35F8F2B62210028000B
:1041D00000F098FEEA692B6ABFF35F8F002111603F
:1041E00083F3108804B070BD9C0B0020002330B511
:1041F00085B001AD6B8028700633082202A86B7071
:10420000FDF79AFF0C4B1C68E269EFF3108372B65E
:1042100011680029FCD0BFF35F8F236229002000C2
:1042200000F070FEE269236ABFF35F8F0021116026
:1042300083F3108805B030BD9C0B0020F0B5C64656
:10424000804600B584B001AC0F00160000210822A2
:1042500020001D00FDF76AFF4346237007236370AB
:104260000F4B65711D682771A660EA69EFF3108333
:1042700072B611680029FCD0BFF35F8F2B6221005A
:10428000280000F03FFEEA692B6ABFF35F8F002130
:10429000116083F3108804B080BCB846F0BDC046FE
:1042A0009C0B0020F0B54646D6464F468046C0B52A
:1042B0000C0015001E00002A2ED070239946184BC2
:1042C00000279A466378052B0FD1E1788907890F7B
:1042D000B1420AD14A46A3781A4206D15346200079
:1042E000997800F08DFC002805D10020E0BCBA468A
:1042F000B146A846F0BD21004046FEF7BFFE0028AB
:10430000F3D0A378DA09012A08D0089A1370237829
:104310000137E418AF42D5DB0120E7E7099AF5E75A
:10432000440B0020802310B51B0184B001930E4B79
:1043300002901C680391E269EFF3108372B6116872
:104340000029FCD0BFF35F8F2362200001A900F099
:10435000D9FDE269236ABFF35F8F0021116083F307
:10436000108804B010BDC0469C0B0020702270B5B0
:104370008B7805000C001A4201D0002070BD064B5E
:104380002000997800F03CFC0028F6D0210028009D
:10439000FEF774FEF2E7C046440B002070B57F24A0
:1043A0000C406300144CC909E41864183034E378F5
:1043B000DB07DD0F002B18D1E3785B0701D5280060
:1043C00070BD01210D4E4942306800F05DFFE37879
:1043D000DB07DD0F002B0AD1E3785B0708D404224A
:1043E000E37801251343E37002E00025E7E70025A9
:1043F000306800F031FFE2E7440B0020980B00200A
:1044000070B50C0001210F4D4942286800F03CFFB7
:104410007F2121404B000C49E409C91809193031AA
:10442000CB780024DB0708D4CB785B07DC0F002BAC
:1044300003DA0422CB789343CB70286800F00CFF9A
:10444000200070BD980B0020440B002070B57F2524
:104450000F4C0D406D0064190600C8092418303453
:10446000E5780020ED0700D570BD0125E0782843F0
:10447000E0703000FEF7D8FE0028F5D10122E37885
:104480009343E370E37803329343E370ECE7C04671
:10449000440B002070B50A4E0500300008220C00C5
:1044A000FDF74AFE00237F21F3602278B36091423A
:1044B0005B412800D90100220023FFF7C7FF70BD30
:1044C000E80A0020F8B5CE46474691462A4E80B508
:1044D0000822070030000D009846FDF72DFE4B46E0
:1044E000B3600023F381EC79A97924020C43231CE7
:1044F000444500D943469AB29046B381002C13D06C
:10450000002A1FD04B46002B34D0131C402A1FD842
:104510009BB2984633787F2B20D80021174A434618
:104520003800FFF793FF09E07F222B7838009A428A
:10453000644100230022E101FFF788FFC0BCB946B7
:10454000B046F8BD33787F2B11D980210022E6E7F1
:1045500040239BB2984633787F2BDED9074C4246E6
:1045600049462000FDF7E8FD80212200D7E7002121
:104570000022D4E70020E1E7E80A0020040B002035
:1045800010B5142200210248FDF7D0FD10BDC04631
:10459000E80A0020014B18617047C046E80A002075
:1045A00010B5054C010008222000FDF7C5FD0023D1
:1045B000A360E36010BDC046E80A0020F8B53B4C9C
:1045C0001D0023780600DA09C9098A4213D00020A9
:1045D000002D00D0F8BD364B002B03D02100300059
:1045E000FEF73EFD2369002B44D02200022130005B
:1045F00098470120EEE77F2B06D8A068002837D027
:104600002A002C49FDF798FDA368E289591952192F
:10461000E38892B2E281A160934214D03F2D12D977
:10462000A589A81A071C80B240282FD82378BFB2CA
:104630007F2B2DD80021AA4235D01E4A3B003000E6
:10464000FFF704FFC6E72369002B05D022000121F4
:104650003000984700280FD07F22002123783000B7
:104660009A42494100230022C901FFF7EFFEB1E75A
:104670000020AFE70120ADE700213000FEF7E6FDA6
:1046800030008021FEF7E2FD0120A3E74027CDE7BF
:10469000AA4207D0074C3A002000FDF74DFD8021CB
:1046A0002200CBE780210022C8E7C046E80A0020AC
:1046B00061300010040B002010B50400FEF7E4FF89
:1046C000002801D1002010BDFEF7E6FF0028F9D137
:1046D000B6208000444303480019037901201840A4
:1046E000F1E7C04610080020B6239B00584310B5E0
:1046F000024B1030C01800F011FB10BD1008002054
:10470000F0B5B625AD0045432C00C646174F103412
:10471000E41900B5200092B200F074FB06002000FE
:1047200000F014FB3F2803D8300080BCB846F0BD31
:104730007B190020D9789846FFF730FE0028F3D087
:10474000200000F003FB3F280AD996239B00EA18BB
:104750004346D219D97800204023FFF777FEE3E7DC
:1047600043460020D978FFF74BFEDDE71008002014
:10477000F8B50400FEF788FF002801D10020F8BD3D
:10478000FEF78AFF0028F9D1B620800044432500B7
:10479000144E2C35AD19280000F0C0FA0028EDD0D9
:1047A00037190020B978FFF7F9FD0028E6D0A623D5
:1047B0009B009C466444A41921002800402200F07C
:1047C00021FBB978051E08D0030022000020FFF766
:1047D0003DFE0028D2D02800D1E70020FFF710FED0
:1047E000CCE7C0461008002070B5B624A4004443AE
:1047F000094B2C34E418050092B2200000F0C0FBF5
:104800000600200000F08AFA3F2801D8300070BD71
:104810002800FFF7ADFFF9E710080020B6239B0042
:10482000584310B5024B2C30C01800F08FFA10BD61
:1048300010080020B622F0B51B4C83B000212000E8
:104840009200FDF773FCFF236371184B802600254F
:10485000E380012708232100200076002373320023
:10486000278148310095073B103000F01BFA2100EA
:10487000200049313200FF31012300972C3000F035
:1048800011FA92239B00E6183000FCF7F3F894230A
:104890009B00A662E61830006562FCF7EBF8266420
:1048A000656403B0F0BDC0461008002000C2FFFFE1
:1048B00010B5094C052200212000FDF737FC20002F
:1048C0002C34103000F0DCFB200000F0D9FB01217B
:1048D000200000F0FBFB10BD10080020F0B54B7964
:1048E000060083B0022B02D18B79022B03D0002566
:1048F000280003B0F0BD2F4FBB78002BF7D18B7889
:1049000009253B700C780C196378242B0BD1082AED
:1049100002D80FE0AA420DD32378E418ED1863788B
:10492000ADB2242BF6D0052B20D0042B02D1637915
:104930000A2B2ED0204C200000F008FA3F28D7D9AF
:104940002600103E0020F178FFF728FD0028CFD088
:10495000200000F0FBF93F2816D992239B00E218B3
:10496000F17840230020FFF771FDC1E721003000FE
:10497000FFF7FCFC0028BAD0A3787B702378ED18F1
:10498000E4186378ADB2D0E7F1780020FFF738FD86
:10499000AEE70A4B277801930133009302220223EA
:1049A0003000E119FFF77EFC0028A0D00E35ED198C
:1049B000ADB2BFE710080020200800201208002038
:1049C000F8B5602314001278050013400020202B56
:1049D00012D12F4A6379277916781B023B439E42F6
:1049E0000AD16378222B27D007D8202B17D0212B70
:1049F00002D100293DD00120F8BD232BFCD1002994
:104A00003FD00229F7D1234B002BF4D0E178A378D3
:104A100009020020194300E000BF0120ECE7002953
:104A200027D00229E7D11C4B002BE4D00020911D98
:104A3000FDF72EFE0120DFE7002922D00229DAD17E
:104A400001252E00A378E478013924021C43147157
:104A500026402C321000714000F038FB0F4B002B29
:104A6000C9D06208002031002A4000E000BF0120C8
:104A7000C2E7072321002800094AFFF723FD012090
:104A8000BAE721002800FFF705FD0120B4E7C04682
:104A90001008002000000000912600100000000017
:104AA00016080020F8B557464E464546DE46E0B5A6
:104AB000494F8046FA780C001E008A4264D19AB2AF
:104AC00096239B00FD1810239B46BB4429005846A3
:104AD00000F056FA414BD946002B18D07B79D946C5
:104AE000FF2B14D0002E12D0AA19924603E00135F4
:104AF00055450CD07B792A789A42F8D1484600F087
:104B00001DF90028F3D1797900E000BFEFE7344BBD
:104B1000002B04D0484600F011F9002852D0484636
:104B200000F014F93F2834D84A46103A9378A3424B
:104B300007D001242000F0BCBB46B246A946A046DF
:104B4000F8BD284B002B02D0002000E000BF002061
:104B5000FFF70EFE0028ECD1234D280000F0DEF810
:104B60000028E6D1002EE4D0B306E2D12C3D404629
:104B7000A978FFF713FC041EDBD000230022404677
:104B8000A978FFF763FCD5E7BB788B42D9D0002426
:104B9000D0E74D46103D0020E978FFF7FFFB0028E5
:104BA00001D1AB78C3E7484600F0D0F83F280CD9D4
:104BB0009222920040230020E9784A44FFF746FC05
:104BC000AB78B4E7FDF7C8FEA9E70020E978FFF766
:104BD00017FCAB78ABE7C0461008002000000000CF
:104BE00059290010000000003C08002010B50020EA
:104BF000FEF760FD10BDC04610B5FEF755FD10BDB7
:104C0000072210B544790379224012021A43C3786F
:104C10009B079B0F022B05D0032B15D00020012BE7
:104C200008D010BD02291CD00020402393424041EF
:104C3000C0B2F6E702394B4259410D4B9C466144E4
:104C400091424041C0B2ECE702394B425941F02356
:104C5000002049429B001940403191424041C0B27E
:104C6000DFE7044B9C46624453425A41D0B2D8E736
:104C7000FF03000000FEFFFFF0B5002A11D0002462
:104C80007F274D78052D06D13D008E7835406D008B
:104C9000F6094519AB550D786419A4B24919A24219
:104CA000EFD8F0BDF0B5C64600B5150006AA1E0047
:104CB0001378802204000F009846120295422AD8E9
:104CC0004069002803D00121494200F0DDFAA069C3
:104CD000002803D00121494200F0D6FA4346A580BE
:104CE0006D00ADB223726B1EA381002360696D421B
:104CF000E3812760E68065812382002801D000F0EF
:104D0000ABFAA0690124002801D000F0A5FA200028
:104D100080BCB846F0BD0024F9E7C046C189028ACC
:104D20008B1A9BB2914202D242899B1A9BB2828813
:104D3000101C9A4200D9181C80B270470300C08929
:104D40001B8AC01A43425841C0B2704710B5C4898B
:104D5000018A8388621A92B28C4202D24089121A66
:104D600092B2981A80B210BD70B5040080690E002E
:104D7000002803D00121494200F086FAE189228A05
:104D800088B28D1A93B2ADB2914202D26289AD1A45
:104D9000ADB2A288AA4207D2904225D261895118A9
:104DA000411A89B215002182002D02D122E09B1AFE
:104DB0009BB29A42FBD9E288216853433000C9185C
:104DC000FDF7BAF9228A0125531C9BB29A4214D9E5
:104DD000002362899B189BB2A0692382002801D01E
:104DE00000F03AFA280070BD811AA58989B28D4277
:104DF000D8D2D3E70025238A9BB2A2899A42EBD26C
:104E0000E7E7C046F0B54F464646D64605008069FE
:104E100088469146C0B5002803D00121494200F0E0
:104E200033FAEA892B8A91B2D61A9CB2B6B29A4268
:104E300002D26B89F61AB6B2AF88B74209D2B9422C
:104E400054D26B89FB18CB1A9BB23E002B822C8A62
:104E5000A4B2002E50D04B46B14545D89EB2A742D1
:104E600003D8E41BA4B2A742FBD9EB88381B190076
:104E700099462B6861439C4680B26144864225D99D
:104E80004B46584383B21A0040469A46FDF754F900
:104E90004B464046F71BE4195C432968A2B25044D4
:104EA000FDF74AF92A8A93199BB29A4218D96A895E
:104EB0009B189BB2A8692B82002801D000F0CCF986
:104EC0003000E0BCBA46B146A846F0BD4A4640466E
:104ED0007243FDF731F92A8A93199BB29A42E6D8B8
:104EE000AA899A42E6D2E2E7331CB7E7CB1BAA892C
:104EF0009BB29A42A9D2A4E72B8AAA899BB29A4272
:104F0000D8D2D4E7F8B5040040690E00002803D0D9
:104F10000121494200F0B8F9E289218A95B2531A79
:104F20009BB2914202D962899B1A9BB2A2889A4293
:104F300021D02B00954203D39B1A9BB29A42FBD9F6
:104F4000E28821685343C8183100FDF7F5F86B1C5F
:104F50009BB29D420BD962899B189BB26069012765
:104F6000E381002801D000F077F93800F8BDA2896C
:104F70009A42F3D2EFE7277A002FDAD1F5E7C0465D
:104F8000F8B545464E46DE4657468846E0B505002C
:104F9000161E5AD04069002803D00121494200F072
:104FA00073F9EF892B7A298ABFB289B2002B3BD1E2
:104FB0007A1AAB8892B28F4202D26989521A92B29F
:104FC0009A1A111C92B2B24253D8EA888EB2924613
:104FD000F21A92B291463C009F4203D3E41AA4B263
:104FE0009C42FBD250462A68604394461B1B9BB2EE
:104FF000524660449E422AD841467243FDF79CF8CF
:10500000F3199BB29F421CD8AA899A4219D36869A6
:10501000EB81002801D000F01FF93000F0BCBB4646
:10502000B246A946A046F8BDEA88AB8892469E42A1
:1050300021D3F61A56430022B0440F001E009146B9
:10504000C9E76A899B189BB2E1E70026E5E753436D
:105050009BB21A0041469B46FDF76EF8220053466C
:1050600041464A445A43286892B25944FDF764F8CD
:10507000C6E7311CA9E7F21A92B29146ABE7C046E7
:1050800010B504004069002803D00121494200F016
:10509000FBF8A069002803D00121494200F0F4F890
:1050A0000023E3812382A38860695B009BB25A1EC0
:1050B0005B42A2816381002801D000F0CDF8A06995
:1050C000002801D000F0C8F8012010BD70B5040020
:1050D00040690D00002803D00121494200F0D4F8B6
:1050E000A069002803D00121494200F0CDF8606991
:1050F0002572002801D000F0AFF8A069002801D087
:1051000000F0AAF8012070BD03BDC04610B5040030
:10511000FBF782FCA04710BDF0B5040087B00F205C
:105120000E001700FBF7F6F9002105000F20FBF732
:10513000DFF9002300220092019301230293D02380
:1051400004960594002600240121022003971B06E3
:10515000002C14D01A6D1042FCD05C6540BF1A6D53
:10516000114203D120BF1A6D1142FBD09A6DA242A9
:105170000AD000266C46B200A458E9E79A6D1A6D71
:105180001142FBD140BFE5E70136052EF2D92900D7
:105190000F20FBF7ADF907B0F0BDC0460B4B0C4A32
:1051A00010B5934201D201235B421900094A98507D
:1051B00004329B50084A094B0948CA50094B9A6867
:1051C000044B9C466144FFF7A7FF10BD0008042074
:1051D00000000420F40700000D510010FC0700003F
:1051E0000951001000ED00E010B583070AD003005C
:1051F000032102E001330B4205D01A78002AF9D1CD
:10520000181A10BD030019680C4A0D4C8A188A43FD
:1052100022420FD15968094A04338A188A4322422C
:1052200008D15968054A04338A188A432242F1D0CA
:1052300000E001331A78002AFBD1E1E7FFFEFEFE11
:1052400080808080F8B5C04601B40248844601BC25
:10525000604700BFD102002001B40248844601BC6F
:10526000604700BF3102002001B40248844601BCFF
:10527000604700BF9503002001B40248844601BC8A
:10528000604700BFC100002001B40248844601BC51
:10529000604700BFA101002001B40248844601BC60
:0852A000604700BF050100207A
:1052A8004E6F207370696E6C6F636B7320617265EB
:1052B80020617661696C61626C6500004E6F2075D3
:1052C800736572204952517320617265206176615D
:1052D800696C61626C65000048617264776172652F
:1052E80020616C61726D20256420616C7265616457
:1052F8007920636C61696D65640000000A2A2A2AB6
:105308002050414E4943202A2A2A0A000A00000058
:1053180048617264206173736572740052656C65CC
:1053280061736500626F6F74325F77323571303840
:1053380030000000312E352E300000007069636F98
:10534800000000007069636F6475636B7963000027
:105358004A756E2032302032303233000600525007
:10536800BBFF3CB64453001006005250E182887FD0
:105378002C53001006005250D3F0754224530010ED
:105388000D0A00005541525420737464696E000080
:1053980055415254207374646F75740055415254CA
:1053A80020737464696E202F207374646F757400A1
:1053B8000600525053B4F4A1A453001008005250F0
:1053C80092000000E5250010E9250010F5250010E1
:1053D800212600101D260010000000005553422011
:1053E800737464696E202F207374646F7574000081
:1053F8000600525053B4F4A1E45300105261737084
:105408006265727279205069000000005069636F0C
:1054180000000000426F61726420434443000000B2
:10542800526573657400000009025400030100808E
:105438007D080B00020202000009040000010202BC
:1054480000040524002001052401000104240202AF
:10545800052406000107058103080010090401005E
:10546800020A000000070502024000000705820248
:105478004000000904020000FF00010512010002BB
:10548800EF0201408A2E0A00000101020301000018
:105498000000000004540010145400107012002082
:1054A8001C54001028540010556E68616E646C65B9
:1054B800642049525120307825780A0065702025EB
:1054C800642025732077617320616C72656164794B
:1054D80020617661696C61626C65000043616E27CA
:1054E8007420636F6E74696E7565207866657220C6
:1054F8006F6E20696E61637469766520657020251A
:105508006420257300000000AC370010A839001093
:105518003A390010EE380010D0380010B8380010B2
:105528004C380010FA370010EE370010843C001099
:105538006A3C0010A6380010023D0010A638001082
:10554800EA3C0010D63C0010A6380010C23C0010FF
:10555800983C0010A6380010F23F00101C3D0010C7
:1055680022400010A6380010A63800100440001091
:105578001C3D0010A6380010A6380010A6380010F0
:10558800A6380010A6380010A6380010A63800105B
:10559800E23F001035480010B1480010DD48001007
:0C55A800C1490010A54A001000000000DE
:1055B400AC020010A002001094020010645300100A
:1055C40088020010705300107C530010B853001070
:0855D400C4530010F85300104D
:1055DC0003000068EFF3108C72B60268002AFCD04E
:1055EC00BFF35F8F04229A56002A0BDB00290FD0E1
:1055FC0000200A601B68BFF35F8F00221A608CF3D7
:10560C0010887047D0221206126801201A71F1E737
:10561C000020EFE7F0B5C646150000B504001E00EB
:10562C000268EFF3108172B61368002BFCD0BFF345
:10563C005F8F0423E356002B2DDB2268BFF35F8FB3
:10564C000020106081F31088D0221206127852B21A
:10565C0090469A4203D1002080BCB846F0BD00278A
:10566C000BE02368BFF35F8F1F6081F31088280065
:10567C00310000F029F90028EDD12268EFF31081F8
:10568C0072B61368002BFCD0BFF35F8F23797F2B8E
:10569C00E7D9434602E0D0231B061B68237123681D
:1056AC00BFF35F8F00221A6081F310880120D3E7CB
:1056BC00F0B5C64600B50D00040000F0F5F8FA226E
:1056CC0006000F00002328000021920000F0F4F8DF
:1056DC0036184F41002F2CDBD0231B061B680025EE
:1056EC0098460BE02368BFF35F8F1D6081F3108831
:1056FC003000390000F0E8F8002818D12268EFF3E8
:10570C00108172B61368002BFCD0BFF35F8F237926
:10571C007F2BE7D9434623712368BFF35F8F0022A9
:10572C001A6081F31088012080BCB846F0BD0020BF
:10573C00FAE70126014F7642CEE7C046FFFFFF7F16
:10574C000268EFF3108172B61368002BFCD0BFF324
:10575C005F8FFF2303710368BFF35F8F00221A6012
:10576C0081F3108840BF7047084810B50378002BB0
:10577C000AD180230649074A5B051C68CC500433C8
:10578C009342FAD10123037010BDC046831200204E
:10579C00700C00100001001010B5024B013398473B
:1057AC0010BDC046700C0020034B1A68C0239B0030
:1057BC009343024A136070470C8001400C900140E7
:1057CC00054B1A6880239B005340C0229200134063
:1057DC00024A13607047C0460C8001400C90014097
:1057EC001423F0B5D6464F4646469A46814618884D
:1057FC000433C0B598460E001B88274914009847FF
:10580C00534607001888434624491B88984753463B
:10581C0005001888434622491B8898478046FFF7A5
:10582C00A3FFB847A847FFF7CBFF002C1BD0C02124
:10583C0022000827022049053D008B6A1D401842B2
:10584C000BD0002C09D0131B0D2B1FD84B461B78EB
:10585C00013C0B6601239C46E1442300002D0CD136
:10586C001343002BE8D1FFF79FFFC047FFF794FFCE
:10587C00E0BCBA46B146A846F0BD002AF1D00B6E8A
:10588C00013A3370130001362343EAE7002DD3D0DD
:10589C00002AD1D0F3E7C046494600004558000025
:1058AC00464300007047C04601B40248844601BC20
:1058BC00604700BFA912001001B40248844601BC25
:1058CC00604700BF5920001001B40248844601BC57
:1058DC00604700BF5D1100101000000000000000C8
:1058EC0000000100000000000000000000000200A9
:1058FC000000000000000000000003000000000099
:10590C00000000000000FF000000000001B5486826
:10591C0001318E460047704609380149884701BD60
:10592C00650900102C04002000000000E804002091
:10593C00AC0D00200000000000000000BC0D002099
:10594C00000000000000000010000000000000003B
:10595C00503300004C33000054330000523300002D
:10596C004D5300004D4300005334000043340000FD
:10597C0019240010000000006524001011250010EF
:10598C000000000000010000C5270010000000000E
:10599C003D270010C526001000000000000100008B
:1059AC00B453001094530010A00B002010000C00F6
:1059BC000000E0FF1F0000000000000000000000DD
:1059CC0000000000000000000000000000000000CB
:1059DC000000000000000000000000001D2100106D
:1059EC00D91E0010991F00108D20001031030010DB
:0459FC00D92A001094
:04000005100001E9FD
:00000001FF
